{
  "contractName": "Marketplace",
  "abi": [
    {
      "inputs": [],
      "stateMutability": "nonpayable",
      "type": "constructor"
    },
    {
      "anonymous": false,
      "inputs": [
        {
          "indexed": false,
          "internalType": "uint256",
          "name": "id",
          "type": "uint256"
        },
        {
          "indexed": false,
          "internalType": "string",
          "name": "name",
          "type": "string"
        },
        {
          "indexed": false,
          "internalType": "uint256",
          "name": "price",
          "type": "uint256"
        },
        {
          "indexed": false,
          "internalType": "address",
          "name": "owner",
          "type": "address"
        },
        {
          "indexed": false,
          "internalType": "bool",
          "name": "purchased",
          "type": "bool"
        }
      ],
      "name": "ProductCreated",
      "type": "event"
    },
    {
      "inputs": [],
      "name": "name",
      "outputs": [
        {
          "internalType": "string",
          "name": "",
          "type": "string"
        }
      ],
      "stateMutability": "view",
      "type": "function"
    },
    {
      "inputs": [],
      "name": "productCount",
      "outputs": [
        {
          "internalType": "uint256",
          "name": "",
          "type": "uint256"
        }
      ],
      "stateMutability": "view",
      "type": "function"
    },
    {
      "inputs": [
        {
          "internalType": "uint256",
          "name": "",
          "type": "uint256"
        }
      ],
      "name": "products",
      "outputs": [
        {
          "internalType": "uint256",
          "name": "id",
          "type": "uint256"
        },
        {
          "internalType": "string",
          "name": "name",
          "type": "string"
        },
        {
          "internalType": "uint256",
          "name": "price",
          "type": "uint256"
        },
        {
          "internalType": "address",
          "name": "owner",
          "type": "address"
        },
        {
          "internalType": "bool",
          "name": "purchased",
          "type": "bool"
        }
      ],
      "stateMutability": "view",
      "type": "function"
    },
    {
      "inputs": [
        {
          "internalType": "string",
          "name": "_name",
          "type": "string"
        },
        {
          "internalType": "uint256",
          "name": "_price",
          "type": "uint256"
        }
      ],
      "name": "createProduct",
      "outputs": [],
      "stateMutability": "nonpayable",
      "type": "function"
    }
  ],
  "bytecode": "0x6080604052600060015534801561001557600080fd5b506040518060400160405280600b81526020017f4d61726b6574706c61636500000000000000000000000000000000000000000081525060009080519060200190610061929190610067565b5061016b565b82805461007390610139565b90600052602060002090601f01602090048101928261009557600085556100dc565b82601f106100ae57805160ff19168380011785556100dc565b828001600101855582156100dc579182015b828111156100db5782518255916020019190600101906100c0565b5b5090506100e991906100ed565b5090565b5b808211156101065760008160009055506001016100ee565b5090565b7f4e487b7100000000000000000000000000000000000000000000000000000000600052602260045260246000fd5b6000600282049050600182168061015157607f821691505b602082108114156101655761016461010a565b5b50919050565b6109018061017a6000396000f3fe608060405234801561001057600080fd5b506004361061004c5760003560e01c806306fdde03146100515780637acc0b201461006f578063e0f6ef87146100a3578063e9300c6c146100c1575b600080fd5b6100596100dd565b60405161006691906104e8565b60405180910390f35b61008960048036038101906100849190610554565b61016b565b60405161009a9594939291906105ec565b60405180910390f35b6100ab610256565b6040516100b89190610646565b60405180910390f35b6100db60048036038101906100d69190610796565b61025c565b005b600080546100ea90610821565b80601f016020809104026020016040519081016040528092919081815260200182805461011690610821565b80156101635780601f1061013857610100808354040283529160200191610163565b820191906000526020600020905b81548152906001019060200180831161014657829003601f168201915b505050505081565b600260205280600052604060002060009150905080600001549080600101805461019490610821565b80601f01602080910402602001604051908101604052809291908181526020018280546101c090610821565b801561020d5780601f106101e25761010080835404028352916020019161020d565b820191906000526020600020905b8154815290600101906020018083116101f057829003601f168201915b5050505050908060020154908060030160009054906101000a900473ffffffffffffffffffffffffffffffffffffffff16908060030160149054906101000a900460ff16905085565b60015481565b6001600081548092919061026f90610882565b91905055506040518060a0016040528060015481526020018381526020018281526020013373ffffffffffffffffffffffffffffffffffffffff168152602001600015158152506002600060015481526020019081526020016000206000820151816000015560208201518160010190805190602001906102f19291906103ac565b506040820151816002015560608201518160030160006101000a81548173ffffffffffffffffffffffffffffffffffffffff021916908373ffffffffffffffffffffffffffffffffffffffff16021790555060808201518160030160146101000a81548160ff0219169083151502179055509050507fbc59c0c8165864dcceb377dd07d8f431d4303f8e501cb0a0374a10cc68d7183660015483833360006040516103a09594939291906105ec565b60405180910390a15050565b8280546103b890610821565b90600052602060002090601f0160209004810192826103da5760008555610421565b82601f106103f357805160ff1916838001178555610421565b82800160010185558215610421579182015b82811115610420578251825591602001919060010190610405565b5b50905061042e9190610432565b5090565b5b8082111561044b576000816000905550600101610433565b5090565b600081519050919050565b600082825260208201905092915050565b60005b8381101561048957808201518184015260208101905061046e565b83811115610498576000848401525b50505050565b6000601f19601f8301169050919050565b60006104ba8261044f565b6104c4818561045a565b93506104d481856020860161046b565b6104dd8161049e565b840191505092915050565b6000602082019050818103600083015261050281846104af565b905092915050565b6000604051905090565b600080fd5b600080fd5b6000819050919050565b6105318161051e565b811461053c57600080fd5b50565b60008135905061054e81610528565b92915050565b60006020828403121561056a57610569610514565b5b60006105788482850161053f565b91505092915050565b61058a8161051e565b82525050565b600073ffffffffffffffffffffffffffffffffffffffff82169050919050565b60006105bb82610590565b9050919050565b6105cb816105b0565b82525050565b60008115159050919050565b6105e6816105d1565b82525050565b600060a0820190506106016000830188610581565b818103602083015261061381876104af565b90506106226040830186610581565b61062f60608301856105c2565b61063c60808301846105dd565b9695505050505050565b600060208201905061065b6000830184610581565b92915050565b600080fd5b600080fd5b7f4e487b7100000000000000000000000000000000000000000000000000000000600052604160045260246000fd5b6106a38261049e565b810181811067ffffffffffffffff821117156106c2576106c161066b565b5b80604052505050565b60006106d561050a565b90506106e1828261069a565b919050565b600067ffffffffffffffff8211156107015761070061066b565b5b61070a8261049e565b9050602081019050919050565b82818337600083830152505050565b6000610739610734846106e6565b6106cb565b90508281526020810184848401111561075557610754610666565b5b610760848285610717565b509392505050565b600082601f83011261077d5761077c610661565b5b813561078d848260208601610726565b91505092915050565b600080604083850312156107ad576107ac610514565b5b600083013567ffffffffffffffff8111156107cb576107ca610519565b5b6107d785828601610768565b92505060206107e88582860161053f565b9150509250929050565b7f4e487b7100000000000000000000000000000000000000000000000000000000600052602260045260246000fd5b6000600282049050600182168061083957607f821691505b6020821081141561084d5761084c6107f2565b5b50919050565b7f4e487b7100000000000000000000000000000000000000000000000000000000600052601160045260246000fd5b600061088d8261051e565b91507fffffffffffffffffffffffffffffffffffffffffffffffffffffffffffffffff8214156108c0576108bf610853565b5b60018201905091905056fea2646970667358221220867a7fd449aabaac9c58d12e8f61090ab69a56377a774969b93d0b49606f5d7c64736f6c634300080b0033",
  "immutableReferences": {},
  "source": "// SPDX-License-Identifier: MIT\npragma solidity >=0.4.22 <0.9.0;\n\ncontract Marketplace {\n    string public name;\n    uint256 public productCount = 0;\n    mapping(uint256 => Product) public products;\n\n    struct Product {\n        uint256 id;\n        string name;\n        uint256 price;\n        address owner;\n        bool purchased;\n    }\n\n    event ProductCreated(\n        uint256 id,\n        string name,\n        uint256 price,\n        address owner,\n        bool purchased\n    );\n\n    constructor() {\n        name = \"Marketplace\";\n    }\n\n    function createProduct(string memory _name, uint256 _price) public {\n        // make sure params are correct\n\n        //incremeent product count\n        productCount++;\n\n        // create a new product\n        products[productCount] = Product(\n            productCount,\n            _name,\n            _price,\n            msg.sender,\n            false\n        );\n\n        // trigger an event\n        emit ProductCreated(\n            productCount,\n            _name,\n            _price,\n            msg.sender,\n            false\n        );\n    }\n}\n",
  "sourcePath": "D:\\LEWY\\Dev\\Projects\\ROUGH\\Blockchain\\Marketplace\\contracts\\Marketplace.sol",
  "compiler": {
    "name": "solc",
    "version": "0.8.11+commit.d7f03943.Emscripten.clang"
  },
  "schemaVersion": "3.4.4",
  "updatedAt": "2022-02-03T00:35:11.034Z",
  "devdoc": {
    "kind": "dev",
    "methods": {},
    "version": 1
  },
  "userdoc": {
    "kind": "user",
    "methods": {},
    "version": 1
  }
}